:020000040000FA
:0600000002133502083472
:03002B000210942C
:03003300020BB20B
:030053000207633E
:03006B00020B671E
:03007B00020B92E3
:100083000207C501010000000000F8FF07FFFF00A1
:10009300000504000000030001FFFFFFFF00141030
:1000A3002700000020FD000206FFFF1EE51C0000E4
:1000B300000000000000000000000000FF05000534
:1000C300000104010C000201168905C48702040122
:1000D3000C0002000000011489030401070102005F
:1000E3000000011A89010400006314000000E80302
:1000F3000000FFFFB4140188130000E8030000644C
:10010300006400B801A0BB0D00A0BB0D00020202F9
:10011300070401051E02051E020A0A01010808015F
:1001230003B80B02803E0102FEFFE8030A0500014B
:10013300FFFF020A011401E00100B0423BAAB83FED
:100143008C906339AA0CA33A00941E3C8042633D11
:10015300CFFE753E1572313FF304353F8096184B41
:10016300000080BF2292D43EDD9B2A3F0400004062
:10017300FFFF7F7FFFFF7FFF010080341872313F55
:1001830002000000050301010F0300030003000345
:10019300000300030003000300030005000A00142A
:1001A3000028004F009E000000982E00000000CEA3
:1001B3002D00000000FF000000FF001213816046C5
:1001C300121345603DE9687008F618F618F618F63C
:1001D30022748067F71201F2090909748067F72214
:1001E300121345601D1213817005191919801A1213
:1001F3001221701F121235C37003E66733191919E0
:1002030040071818182208080874FFF618F618F69D
:1002130018F62212123560171213E2702192F012AF
:1002230013F47019501720F014080808090909E796
:10023300F61819E7F61819E7F61819E7F622121354
:10024300F460E6E869701F0808E62480F608E436DF
:10025300F618547FB47F0CE654806007F6E418F672
:1002630018F622181822E9C6CC08C6CD08C6CE084F
:10027300C6CFC0E0E8C0E0EAC0E0EBC0E009E9F8BF
:1002830009E7FA09E7FBE6F918E6F8C3EC98ED99F4
:10029300EE9AEBC2E7F5F0EFC2E795F0500E600C73
:1002A300EBCFFBEACEFAE9CDF9E8CCF8EAA2E7D244
:1002B300E7FAEB33FB13F5F0EEA2E7D2E7FEEF33F9
:1002C300FFC5F013A2E730E601B313C5F0C3C0E0E6
:1002D300C0F07F00C39BFB605E9418600F401D1449
:1002E300601AD0E023F9D0E0F80203C48AF0E948A9
:1002F3006003D2F0E4AFF0FAF9F8803BEB30E40DA1
:1003030089F0EA6003D2F0E4AFF0F9CAF8EB30E326
:100313000D88F0EF6002D2F0AFF0E4CAC9F8EB54F5
:10032300076014FBC3EA13FAE913F9E813F8EF13B0
:100333005002D2E0FFDBEDD0E0C0E030E739C3E4A8
:100343009FFFF5F0EC98FC42F0ED99FD42F0EE9A38
:10035300FE42F0D0E0F9D0E0F8E5F0607AE923F965
:10036300EE20E742D8028067C3EF33FFEC33FCEDA6
:1003730033FDEE33FE80EAEC28FCED39FDEE3AFE68
:10038300D0E023F9D0E0F84002801BC3EE13FEED6A
:1003930013FDEC13FCEF135002D2E0FF08B8000684
:1003A3007F7F74FF802EEF3350178CF020F00260B4
:1003B300100CBC000C0DBD00080EBE000408E86064
:1003C300DFE933E813FFEE2313FE4F4D4C8008E9BA
:1003D3005480FFE4FEFDFCEE33EF33F47004FCFDC8
:1003E3007E80D0E0FBD0E0FAD0E0F8D0E0CFC618B2
:1003F300CEC618CDC618CCC6F92212134570041800
:10040300181822121381700D74FFF61819F61819B3
:10041300F61819F622E7548066F61213F4700F12D9
:1004230013E270F014F608F608F608F680D11213FA
:10043300E2700CF608F608768008E6447F80EC123A
:100443001238700C12122460BFE65480F6E480BBAD
:10045300121224700519191980A5E869700C763FEA
:1004630018768018F618F6E8F922E6CDC0E018EC05
:10047300C0E0E633CD33CDD313F6E719FCE7191902
:1004830033CC33C3947F400ECD9D502408E6548073
:10049300F6E418F6800FF4043D14501408E6447F84
:1004A300F6187680E418F618F6D0E0FCD0E0FD22CA
:1004B300CCD313CCFD18E4C6CBC0E018E4C6CAC045
:1004C300E00808ED08C633E613F618E433C675F002
:1004D30003C3CA97CA09CB97CB199C40047D0880F4
:1004E3002EBD00030205A616B6FF0506060816185C
:1004F300C3CA33CACB33CB33CA27CA09CB37CB19C9
:100503003CC37D08803E187D0820E75CC633C6CA1D
:1005130033CACB33CB33DDF1D5F0EB30E77BCA976E
:10052300CA09CB974ACB199C406F4B7025E620E054
:10053300218066187D08C3CA97CA09CB97CB199C3B
:10054300D3C633C6CA33CACB33CB3350C9DDE7D5A1
:10055300F0E1D3E4C636C608C636C608C636C608B2
:10056300C636C61818188031C3CA97CA09CB97CBA9
:10057300199CB34097C633C6CA33CACB33CB33DDDA
:1005830034D5F02EC6A2E0C640C8CA27CA09CB3765
:10059300194A70BECB3CB480B90808E63308E63389
:1005A300601F181818D0E0FAD0E0FBD0E0FCD0E0D0
:1005B300FD22187D08CA27CA09CB37CB193CD38043
:1005C3008013F618E4B67F11F618B6FF0EF618C6B8
:1005D3000470D20808768080CAF618F618F680C52B
:1005E30000121345604F1213816012E7548066F6C0
:1005F30012122170111213E2703B090909F4F61863
:10060300F618F618F62212123570151213F40808AC
:100613000860EAE6447FF618768018E4F618F622B6
:100623001213F460161213E27012E4F608F608F6D9
:1006330008E65480F609090918181822EAC0E0EB05
:10064300C0E0ECC0E0EDC0E0E687F0A4FBACF0084E
:10065300E687F0A42CFCE435F0FA1809E687F0A449
:100663002C4B60027401CA35F0FCE433FB09E687C6
:10067300F0D2F7A42CCB35F0FC1908E687F0A42BB5
:10068300CC35F0FBE433FD0819E687F0D2E7A42C60
:100693004ACB35F0CD3400FC09E687F0D2E7A42D30
:1006A300CC35F0FDE433FA0918E687F0D2F7A42C31
:1006B300CD35F0CA3400FC08E687F0D2E7D2F7A4C0
:1006C3002ACC35F07A7E20E70B0ACB33CBCD33CD62
:1006D300CC33CC33CB3350147004ED30E00ED2F175
:1006E300E4CD3DCDCC3CCC3B5005DA05C2F1EB5417
:1006F3007FC63308E63392F0FBE73309E733C39A47
:10070300502D2B70190C0D4C4D70151806E608C3AF
:1007130033700D20F10AA2F013F6E418800B402485
:10072300E4F630F002768018F618F618F68024D333
:100733003B14501074FFA2F013F6187680E418F6F9
:1007430018F6800FA2F013F618E63303F618ECF64A
:1007530018EDF6D0E0FDD0E0FCD0E0FBD0E0FA22CB
:10076300C0E074F1120C3AA2AFE433F509D2AF85BD
:10077300A708AFA1EF5508FE74105E600612173389
:1007830075A1EF74085E600812173975A1F780240C
:10079300EFA2E092F0E508A2E082F0501790619892
:1007A300E0F8900658E0C398A2D265D0335002E82F
:1007B300F075A1FE752300E509A2E092AF7F020266
:1007C3000C99C0E074F2120C3AA2AFE433FED2AF3C
:1007D3009061A4E0F8759B00E59158540860087592
:1007E30091F71217878023E591585410600875918B
:1007F300EF12178D8014E591A2E092F0E8A2E08257
:10080300F05007E0C2E0F01218E39061A3E0F8E5CE
:10081300E9585404600E1218B975E9FB906193E02E
:10082300A2E640F2752300EEA2E092AF7F01020C34
:1008330099C0E074F2120C3AA2AFE433FED2AF9047
:1008430061A5E0F8E5BF585404600675BFFB1218B4
:10085300FB80D11208AB30F0431208F0803E8A08C7
:100863008B098C0A8D0B78081208AB20F01430E743
:100873002B74FFFCFBFA747F8022E4FCFBFA748088
:10088300801AB48008BC00F2BB00EF800F50EBF974
:10089300E4C39AFAE49BFBE49CFCE499C6CC18C637
:1008A300CB18C6CA18C6F922E4C9C608CAC608CBFB
:1008B300C6D3330308CCC63392F0C3947F402E943F
:1008C300184019C9B90704CACBCC225025C309CA99
:1008D30033CACB33CBCC33CC33D9F422F4600DC938
:1008E300CCC313CB13CBCA13CAD9F6CC22E4FCFB7B
:1008F300FA2214FCFBFA22C3E498F8E499F91209EA
:100903003B8026C3E49AFAE49BFBE920E7E912095A
:100913003BE498F8E499F922C3E498F8E499F912CE
:10092300093BE498F8E499F9C3E49AFAE49BFB22BF
:10093300EB20E7CFE920E7E0B90010BB0008E88A25
:10094300F084F8AAF022E4FBC8FA22EB70227B10B1
:10095300C833C8C933C9335007C39AC3DBF280060F
:100963009A50012ADBEAC833F4C8C933F4C9FA221E
:1009730075F008E4C833C8C933C933C99AC99B5051
:1009830004C92AC93BD5F0ECFBC833F4C8E4C9FA5F
:1009930022080808EAC0E0EBC0E086F0E7A4FA18F2
:1009A3000986F0E7A42AFA180986F0E7A42AFA18B8
:1009B3000986F0E7A42AFA1986F0E7A4FBE5F02AF2
:1009C300FA190886F0E7A42BFBE5F03AFA19088632
:1009D300F0E7A42BFBE5F03AFA18180986F0E7A430
:1009E300C5F02BFBE43AFA1908E7C5F0C6A426F6CE
:1009F300E5F03BFBE43AFA1886F0E7A4F6E5F008E5
:100A030026F6E43B08F6E43A08F6D0E0FBD0E0FA39
:100A130022080808E630E7111211E5120A2C08082B
:100A230008C64480C618181822181818E9799EC6F3
:100A330008CAC608CBC608CCC6C370207996CACBF1
:100A4300CC7019798ECBCC70137986CC700EF9806B
:100A53002ACA33CACB33CBCC33CC331930E7F2CCED
:100A6300CBCA3350147004EA30E00DE4CA3ACACB5F
:100A73003BCBCC3CCC500209C3E913C6CC1823139F
:100A8300C6CB18C6CA18C6F922E4CFC0E0E4CEC06C
:100A9300E0E4CDC0E0E4CCC0E075F020E626F60843
:100AA300E633F608E633F608E633F6181818EC339F
:100AB300FCED33FDEE33FEEF33FFC3EC9709ED9707
:100AC30009EE9709EF97191919400FFFEC97FC09E5
:100AD300ED97FD09EE97FE191906D5F0BFECF7095E
:100AE300EDF709EEF709EFF7191919D0E0FCD0E09B
:100AF300FDD0E0FED0E0FF222521C582C0E0E52243
:100B030034FFC583C0E0E521C3958224F810AF0804
:100B13008583228582218008858322858221D2AF25
:100B2300CEF0A3E520F0A37808E608F0A3DEFAEF01
:100B3300F0A3E58124FAF8E608F0A3E608F0A3E6BB
:100B430008F0A30808E608F0A3E608F0A31581154A
:100B530081D0E0FED0E0F8158115811581E8C0E071
:100B6300EEC0E022C0E074F2120C3AA2AFE433FE0E
:100B7300D2AFE589A2E45005790112166D7589009B
:100B8300C2C5752300EEA2E092AF7F01020C99C0AB
:100B9300E074F2120C3AA2AFE433FED2AFE58AA2BC
:100BA300E35005790212166D758A00C2EB80D3C03B
:100BB300E074F2120C3AA2AFE433FED2AFE58BA29B
:100BC300E05005790412166D758B00C2E880B312EC
:100BD30013CDB90003020C24E49005017851791375
:100BE3008002F0A3D8FCD9FA78239000867A01BA60
:100BF30000028007E493A3F608DAF97A517B179091
:100C03000087783879028015E493A3AD82AE838A96
:100C1300828B83F0A3AA82AB838D828E83D8E9D99A
:100C2300E77582F87583FD7402121076758231754B
:100C3300832B7400121076C0D02521C582C0E0E555
:100C43002234FFC583C0E0E521C3958224F310AFAE
:100C5300088583228582218008858322858221D28B
:100C6300AFC8F0A3E9F0A3EAF0A3EBF0A37908E798
:100C730009F0A3D8FAECF0A3EDF0A3EEF0A3EFF0A4
:100C8300A3D0E0F0A3D0E0F0A3D0E0F0A3E520F000
:100C9300A3E5F0F0A322852283852182E0C0E0A3AF
:100CA300E0F9A3E0FAA3E0FBA37808E0F608A3DFEA
:100CB300FAE0FCA3E0FDA3E0FEA3E0FFA3E0C0E0B5
:100CC300A3E0C0E0A3E0F5D0A3E0F520A3E0A3F503
:100CD300F010AF08858322858221800885832285D1
:100CE3008221D2AFD082D083D0E0F8D0E0320000AE
:100CF3002275F0108E248F258582298583288521EE
:100D030082852283E0CEA3E0CF852982852883EBE9
:100D1300C9EAC8EDCBECCAC3E833C8E933C9EA333F
:100D2300CAEB33CBC3EA9EF527EB9FF526B35004FA
:100D3300AB26AA27EC33CCED33CDD5F0DAAE24AF16
:100D43002522121345601C12138160171213F470CD
:100D5300071213E27001D322C0D01213E27006D03F
:100D6300D0B322C32233D0D0501430E0F6C3E79679
:100D73000809E7960809E7960809E796B32220E0F1
:100D8300D5E6970809E6970809E6970809E697B3B1
:100D930022121345601B12138160161213F470079D
:100DA3001213E2600CB322C0D01213E27005D0D04C
:100DB30022C32233D0D0501330E0EBC3E7960809A7
:100DC300E7960809E7960809E7962220E0E4E69704
:100DD3000809E6970809E6970809E69722D083D021
:100DE30082ECC0E0EDC0E0E493A3FCE493A3FDED4B
:100DF3004C600D120EB8EC24FFFCED34FFFD80EFC8
:100E0300E493A3FCE493A3FDED4C600D120F81EC7E
:100E130024FFFCED34FFFD80EFD0E0FDD0E0FCE4E7
:100E230093A3C0E0E493C0E022852283852182E07E
:100E3300A3FEE0A3F5207808E0A3F608DFFAE0A319
:100E4300FFE0A3C0E0E0A3C0E0E0A3C0E0E0A3C0F4
:100E5300E0E0A3C0E010AF088582218583228008EB
:100E6300858221858322D2AFD083D08202107CD0A9
:100E730083D082E9C0E0E493A3C386F0C5F095F084
:100E8300F908E493A386F0C5F095F0700BE493A3FF
:100E9300C3994005E9048002A3E475F002A4258206
:100EA300F582E5F03583F583D0E0F9E493A3C0E060
:100EB300E493C0E022C0E0C3E493960874019396E0
:100EC30018400FE493667008087401936618700065
:100ED3007019A3A3C3E49396087401939618A3A36C
:100EE300400DD0E0D0E0D0E0020E1CA3A3A3A3A347
:100EF300A3D0E0227404800474028000CCC0E0ED2F
:100F0300C0E0E521C39CCCAD2250011D10AF068C7F
:100F1300218D2280068C218D22D2AF120FF8D0E0D2
:100F2300FDD0E0FC2274028000CCC0E0EDC0E0E51F
:100F330021C39CCCAD2250011D10AF068C218D2204
:100F430080068C218D22D2AF120FD6D0E0FDD0E0E7
:100F5300FC22121345602512138160201213F470D2
:100F6300030213E2080808E76670101819E76670B1
:100F73000A1819E76670041819E76622F422C0E01C
:100F8300C0F088F0E49366700808740193661870E3
:100F930000A8F0A3A3700BD0F0D0E0D0E0D0E00223
:100FA3000E1CA3A3D0F0D0E022D083D082CCC0E02B
:100FB300E493A360061210191470FAE493A3600675
:100FC3001211651470FAD0E0FCE493A3C0E0E4933B
:100FD300C0E022CAC0E0E493A3C582CCC582C58326
:100FE300CDC583F0A3C582CCC582C583CDC583DAC5
:100FF300E5D0E0CA22CAC0E0E0A3C582CCC582C561
:1010030083CDC583F0A3C582CCC582C583CDC583FB
:10101300DAE6D0E0CA22C0E0E493A3D39C5010E404
:1010230093A3C39C400AD0E0D0E0D0E0020FC9A351
:10103300A3A3D0E022700908080822601618181824
:10104300C6C333C608C633C608C633C608C633C6C6
:10105300D5E0EA22C008C3E096F50808A3E096426B
:101063000808A3E096420808A3E09645087001D358
:10107300D00822C09FF59FE473D09F22D083D082F3
:10108300C09FE493C0E0740193C0E0740293F59FA2
:1010930022C0E0C0D0E8C0E0A8A8D2AFC2C7752381
:1010A30000E8A2E792AFD0E0F8D0D0D0E03225211B
:1010B300F58210AF08F521400C15228008F5214078
:1010C300021522D2AF852283227404800A7403801E
:1010D30006740280027401C0E0F4041210B1D0E07F
:1010E3001213902200C0D0252110AF08F521500C17
:1010F30005228008F52150020522D2AFD0D022BBB1
:101103000102E722C082C08389828A83BB0003E095
:101113008002E493D083D082226016080808C6C3F5
:1011230013C618C613C618C613C618C613C6D5E009
:10113300EA222521F8E43522F9222521FAE4352291
:10114300FB222521FCE43522FD22C3E0C696F608E6
:10115300A3E0C696F608A3E0C696F608A3E0C696F3
:10116300F622C0E0E493A36C7009D0E0D0E0D0E0B5
:10117300020FC9A3A3D0E022252110AF08F5214017
:101183000C15228008F52140021522D2AF22E06619
:10119300701008A3E066700A08A3E066700408A351
:1011A300E06622E76670100809E766700A0809E737
:1011B3006670040809E76622C3E09608A3E0960870
:1011C300A3E09608A3E096A2D265D03322C3E796A4
:1011D3000809E7960809E7960809E796A2D265D0B9
:1011E3003322181818E4C396F608E496F608E49632
:1011F300F608E496F622C3E096F008A3E096F0081A
:10120300A3E096F008A3E096F022C3E697F6080958
:10121300E697F60809E697F60809E697F6221818FE
:1012230018E60846087009E626087005E633F42236
:101233000822191919E70947097009E727097005F1
:10124300E733F4220922C3E49396087401939608C2
:1012530074029396087403939622E627F60809E628
:1012630037F60809E637F60809E637F6227004224E
:10127300600D18C6C333C608C633C6D5E0F41822BA
:10128300E056F608A3E056F608A3E056F608A3E0F6
:1012930056F622E026F608A3E036F608A3E036F673
:1012A30008A3E036F622E026F008A3E036F008A310
:1012B300E036F008A3E036F022E056F008A3E0564B
:1012C300F008A3E056F008A3E056F022E647F6083C
:1012D30009E647F60809E647F60809E647F622E66F
:1012E30057F60809E657F60809E657F60809E657D8
:1012F300F622600D08C6A2E713C618C613C6D5E0CA
:10130300F322C6F4C608C6F4C608C6F4C608C6F473
:10131300C622C3E09608A3E09608A3E09608A3E0DC
:101323009622C3E7960809E7960809E7960809E7AE
:10133300962275D00075813F752101752205000243
:101343000BD2E6084608C3134608336002E633F4BB
:1013530022600C08C6C313C618C613C6D5E0F42210
:10136300E0F608A3E0F608A3E0F608A3E0F622E619
:10137300F008A3E6F008A3E6F008A3E6F022E709E5
:101383004709C3134709336002E733F422CAC0E0B5
:10139300E6F0A308DAFAD0E0FA22E8F0A3E9F0A332
:1013A300EAF0A3EBF022E0FAA3E0FBA3E0FCA3E066
:1013B300FD22EAF0A3EBF0A3ECF0A3EDF022E0F8BA
:1013C300A3E0F9A3E0FAA3E0FB22E5C754F8440144
:1013D300F5C77901222521F582E43522F58322E739
:1013E3002719471947194722C2AF75D69F02000034
:1013F30022E6261846184618462212107F1DDA02E6
:1014030012107F4ADA0212107F97DA0212107F1F3E
:10141300DB0212107FDADB0212107F3DDC021210B6
:101423007F81DC0212107F1BDD0212107F99DD0227
:1014330012107FCCDD0212107FDADE0212107FFA67
:10144300DE0212107F4EDF0212107F36E00212100E
:101453007F38E20212107FDAE20212107F2AE502DD
:1014630012107FAEE50212107FB3E80212107FE77D
:10147300EA0212107F1FEB0212107F7EEC021210A1
:101483007F88EC0212107FD7EC0212107FA9EE02C4
:1014930012107F19FE0112107F4DFE0112107FA062
:1014A300FE0112107FA3FF0112107F3EF002121003
:1014B3007FBAF00212107FEDF00212107F1BF102CF
:1014C30012107F59F10212107F94F30212107FB3AE
:1014D300F30212107FF8F30212107F8EF40212103F
:1014E3007FDAF40212107F6EF50212107F46F602C5
:1014F30012107FA2F60212107F00F70212107F7DF6
:10150300F70212107FB3F70212107FFEF7021210D8
:101513007F24F80212107FB4F80212107F4BF902F5
:1015230012107F97F90212107FC8F90212107FFF81
:10153300F90212107F85FB0212107F4FFC0212107A
:101543007F1FFD0212107FDE9D0412107FE89D04B1
:1015530012107F549E0412107F5F9E0412107F7A34
:101563009E0412107FAF9E0412107FD79E041210A8
:101573007FFF9E0412107F2E9F0412107F2BA00466
:1015830012107F78A00412107F8DA00412107F1F09
:10159300A10412107F6EA10412107F9AA1041210ED
:1015A3007FBFA20412107F8CA40412107F89DB0476
:1015B30012107FB5DB0412107FD5DB0412107FFC01
:1015C300DB0412107F43DD0412107F76DD0412105A
:1015D3007F34DE0412107FCEDE0412107FB27F0050
:1015E30012107FB77F0012107FEA7F0012107F5521
:1015F300ED0412107F1CEE0412107F2EEE04121065
:101603007FA9EE0412107F02820512107F13820558
:1016130012107FB1820512107FBC820512107FD495
:10162300820512107FFDFF0112107FEBFF031210E2
:101633007FE3820512107FF3820512107F08830572
:1016430012107FBC830512107F00800512107F8368
:10165300800512107FE9800512107F5AF8041210DA
:101663007FE3F80412107FF8F80412107F4AF9049C
:1016730012107F92F90412107FA9F90412107FB29D
:10168300D00412107FC0D00412107F39D10412107D
:101693007F11D20412107FD4D30412107F23D404F9
:1016A30012107F61D40412107FF87F0012107F5054
:1016B300F60412107F88F60412107FD3F704121079
:1016C3007F57F80412107FDBBA0412107F07BB04A4
:1016D30012107F4BBD0412107F8BBD0412107FCB01
:1016E300BD0412107FDFBD0412107FF8BD04121079
:1016F3007FEABE0412107F8FBF0412107FA3BF04C2
:1017030012107F427E0012107F667E0012107F7FD0
:101713007E0012107FB17E0012107FE17E00121056
:101723007F0E7F0012107F187F0012107F7A7F00D8
:1017330012107F897F0012107F937F0012107FA009
:101743007F0012107FB0EA0412107FD0EA04121057
:101753007F0FEB0412107F2AEB0412107F49EB0476
:1017630012107FAFEB0412107FB8EB0412107F1539
:10177300EC0412107F24EC0412107F48EC041210C6
:101783007F09ED0412107F16ED0412107F27ED047C
:1017930012107FB5850512107FFD850512107F2974
:1017A300860512107F2AB60412107F84B704121024
:1017B3007F92B70412107FA5B70412107FBAB70443
:1017C30012107FCFB70412107FE2B70412107F56B6
:1017D300B80412107FBBB80412107F43B90412106F
:1017E3007FBFB90412107F83BA0412107F93BA0427
:1017F30012107FA2BA0412107F1C850512107F40BD
:10180300850512107F68850512107F9085051210DB
:101813007FBAEF0412107FE1EF0412107FFFEF0491
:1018230012107F72F00412107FDDE70412107FF6AE
:10183300E70412107F02E80412107F16E804121066
:101843007F34E80412107F3EE80412107F48E80456
:1018530012107F5BE80412107FE1E80412107F5638
:10186300E90412107F85E90412107FD3E9041210F2
:101873007F22EA0412107F3DEA0412107F47EA0434
:1018830012107F58EA0412107F9BEA0412107F0A99
:10189300870512107F55870512107F7D940412105F
:1018A3007FA7940412107FC4940412107FD794046A
:1018B30012107FED940412107F4B950412107F8356
:1018C300950412107F77990412107FBC9A041210AA
:1018D3007FEF9A0412107F529B0412107FB29C0474
:1018E30012107FDA9C0412107FEF9C0412107FFF0A
:1018F3009C0412107F439D0412107F9E9D041210BE
:101903007FAE9D0412107F51FC0412107F6BFC0408
:1019130012107F93FC0412107FACFC0412107FD0D2
:10192300FC0412107FEEFC0412107F05FD0412105C
:101933007F33FD0412107F4EFD0412107FC2830516
:1019430012107F06840512107F04D80412107F142E
:10195300D80412107F19D90412107F4BD904121026
:101963007F7BD90412107F9ED90412107FB5D9044E
:1019730012107FEFD90412107F54DA0412107F96ED
:10198300DA0412107FD5DA0412107F06DB0412107A
:101993007F31DB0412107FBBF90412107FCDF904F1
:1019A30012107FE1FA0412107FE4FA0412107F9FF1
:1019B300FE0412107FD5FE0412107FEBFE041210FA
:1019C3007F2DFF0412107F3DFF0412107F81FF045F
:1019D30012107F8BFF0412107FFDAE0412107F40A4
:1019E300AF0412107FA5AF0412107FC2AF04121010
:1019F3007F64B00412107F6DB00412107FB2B00484
:101A030012107FDBB00412107FE8B00412107F6362
:101A1300B10412107FEEB10412107F33B20412101E
:101A23007F7EB20412107FE3B20412107F06B30468
:101A330012107F77B30412107FCCB30412107F0708
:101A4300B40412107F3CB40412107F4EB40412107D
:101A53007F60B40412107F7FB40412107F88B40433
:101A630012107F3BB50412107F7EB50412107FBCA9
:101A7300B50412107F61870512107F11FB04121049
:101A83007F0BF20412107F41F20412107F89F204DB
:101A930012107FE2F30412107FD1DB0312107FEAEE
:101AA300DC0312107F24DD0312107FD2DE03121039
:101AB3007F00DF0312107F66E10312107FA6E103AC
:101AC30012107F4AE30312107FDAE30312107F2E12
:101AD300E40312107FD0E40312107F12E503121007
:101AE3007F54E50312107FB1E60312107FFFE70373
:101AF30012107F36EA0312107F64EA0312107F8B01
:101B0300EA0312107F94EA0312107FEBEA03121028
:101B13007F86EB0312107F8EEE0312107F15EF0307
:101B230012107F74840512107F8C840512107F9627
:101B3300840512107FEA840512107FB7BF041210C8
:101B43007FCDBF0412107F6EC00412107FADC0049E
:101B530012107FCAC00412107FFBC00412107F480A
:101B6300C10412107F7BC10412107FB6C10412108E
:101B73007FB1C30412107F19C40412107F028105C0
:101B830012107F61810512107F9F810512107FE083
:101B9300810512107FA3FF0412107F008002121030
:101BA3007F0C800212107F6E800212107F788002F9
:101BB30012107F09810212107F45810212107F35B6
:101BC300820212107F82820212107F11830212108E
:101BD3007F47830212107FC2830212107F91850216
:101BE30012107F8B870212107F69880212107F8781
:101BF300890212107FCD8B0212107F108D021210FA
:101C03007FBF8D0212107F5F920212107F539302E7
:101C130012107FF7930212107F1C940212107FB8E8
:101C2300940212107FCD940212107FF194021210CD
:101C33007F5F950212107F7C950212107FA695029A
:101C430012107F3C970212107F5D970212107F03E0
:101C5300980212107F4B980212107FA09802121064
:101C63007F40990212107FA4990212107F029A02F8
:101C730012107FAB9A0212107F199B0212107F4C35
:101C83009B0212107FBA9B0212107FF59C02121066
:101C93007F6B9E0212107F089F0212107F46A102E3
:101CA30012107FAFA10212107FD9A10212107FF58B
:101CB300A30212107F9CA60212107FC5A702121066
:101CC3007F2FA70412107F91A80412107FF8A90494
:101CD30012107F2FAB0412107F53AC0412107F6AD3
:101CE300AE0412107F90AE0412107FA3AE04121044
:101CF3007FC0AE0412107F10880512107F74D404C5
:101D030012107F2ED50412107F94D50412107FB5C4
:101D1300D50412107F86D60412107F0DC70312104C
:101D23007F3CC70312107FB4C70312107FB7C803E9
:101D330012107F13C90312107F8ACA0312107FA6E1
:101D4300CA0312107FF8CA0312107F3BCB03121091
:101D53007F4ECB0312107FA0CB0312107F5BCC030B
:101D630012107FD5CC0312107FFFCC0312107F37E4
:101D7300CD0312107FB3CE0312107F8CCF0312104A
:101D83007FD5D00312107FA8D10312107F30D20366
:101D930012107F78D20312107F92D20312107FD9D0
:101DA300D20312107FF9D20312107F8FD3031210C4
:101DB3007F15D40312107F6FD40312107FB3D403A3
:101DC30012107F44D70312107F67D80312107FA32A
:101DD300D80312107F95D90312107FBDD9031210B7
:101DE3007FC0D90312107FCAD90312107FDDD90334
:101DF30012107F5CDA0312107F92DA0312107FBE97
:101E0300DA0312107FE5DA0312107F09DB031210E5
:101E13007F7ADB0312107F88DB0312107FBBDB03A7
:101E230012107F2C860512107F38860512107F6CE6
:101E3300860512107FFBFF0412107FF3B00312100C
:101E43007F16B10312107F5CB20312107FA5B20399
:101E530012107F0DB30312107F6BB30312107F6E4A
:101E6300B30312107FBAB30312107F2DB403121001
:101E73007FB5B40312107FB8B40312107F42B503C9
:101E830012107F83B50312107F66B90312107FFF10
:101E9300BA0312107F5DBB0312107FD8BE0312106A
:101EA3007F11C00312107F80C10312107F1EC20373
:101EB30012107FB6900412107F7AC50312107F644C
:101EC300EF0312107F0EF00312107F74F003121051
:101ED3007F86D90212107F09F10312107F5FF1038D
:101EE30012107FAFF10312107F16F20312107F8FCF
:101EF300F30312107FBDF40312107F42F503121097
:101F03007F48F70312107FF1F70312107F9AF8034B
:101F130012107F5CF90312107F05FB0312107FADD3
:101F2300FC0312107F5EFD0312107F76FE03121076
:101F33007F21D30212107F74800312107FBC8003B1
:101F430012107F00810312107F49810312107F93C7
:101F5300810312107FCB810312107F498203121079
:101F63007FA3820312107FF7830312107F888403F9
:101F730012107FE0840312107FFA840312107F2271
:101F8300850312107F7A850312107FE987031210ED
:101F93007F08880312107FEC880312107F1C8A03CA
:101FA30012107F998A0312107FE88A0312107F4967
:101FB3008B0312107FEF8B0312107FBD8D03121062
:101FC3007FBD8E0312107F3B900312107F1C920380
:101FD30012107F82940312107F32960312107F0235
:101FE300970312107F70970312107F8797031210C5
:101FF3007F7F980312107F6F990312107FDA990382
:1020030012107F26E20412107F72E30412107F2F56
:10201300E40412107F93E40412107F00DF04121013
:102023007F1BDF0412107F5FDF0412107F85DF0444
:1020330012107FABDF0412107FC3DF0412107F2660
:10204300E00412107F3BE00412107F5EE1041210E3
:102053007F67E10412107F70E10412107F79E104BD
:1020630012107F83E10412107F26C40412107F250F
:10207300C80412107F2AC80412107F2CC80412103F
:102083007F6DFE0212107FE0FF0212107F07E5044E
:1020930012107F81FD0412107FA1860512107F416B
:1020A300F40412107FBFFF0312107FC7CC04121079
:1020B3007FB9870512107FC9870512107F93C80463
:1020C30012107FF2AB0212107F25AC0212107F9127
:1020D300AC0212107F2CAD0212107FC9AD02121098
:1020E3007F0EAE0212107F30AE0212107F49AE0295
:1020F30012107F6FAE0212107F91AE0212107FCFCB
:10210300AE0212107F13AF0212107F35AF0212100E
:102113007F97AF0212107F5EB00212107F15B102DB
:1021230012107F87B10212107F52B20212107FA5E4
:10213300B20212107F0BB30212107F45B3021210CA
:102143007F97B30212107F05B40212107F70B4029E
:1021530012107F73B40212107FF4B40212107F8B3B
:10216300B50212107F0BB60212107F2AB6021210AC
:102173007F8EB70212107F9BB70212107FA7B8029F
:1021830012107FB4B80212107FBDB80212107F95EF
:10219300BA0212107FAFBB0212107F28BC021210CA
:1021A3007F9ABC0212107FBCBC0212107F50BD028A
:1021B30012107F24BF0212107FFBC20212107F0F86
:1021C300C30212107F1FC30212107F29C302121011
:1021D3007F32C30212107F3BC30212107F45C3023A
:1021E30012107F72C30212107F9BC30212107FA6CC
:1021F300C30212107FCAC30212107FEEC302121071
:102203007F58C40212107F9EC40212107FBBC40207
:1022130012107F38C50212107F6FC50212107FAEF5
:10222300C50212107FFBC50212107F81C602121075
:102233007F4FC80212107FD2C80212107FB6C902A4
:1022430012107F1DCC0212107F76CC0212107FC0B9
:10225300CC0212107F1BCE0212107F50CE0212103E
:102263007FA2CE0212107F57CF0212107F06D00238
:1022730012107F43D00212107FD8D00212107F4475
:10228300D10212107F85310012107FB73100121076
:102293007FE5310012107FBB330012107F9B3400A7
:1022A30012107FF3340012107F2E360012107F7A43
:1022B300360012107FA3390012107F963C001210D3
:1022C3007FE63D0012107F7C3E0012107F883E00A7
:1022D30012107FBA3E0012107F3D400012107FEEB5
:1022E300410012107F82420012107FC5420012107B
:1022F3007F43430012107F60430012107F9043001E
:1023030012107FC5430012107F95440012107F3EC8
:10231300450012107FC4470012107FE448001210DA
:102323007FCF490012107F514A0012107F854E0063
:1023330012107FC24E0012107F1A4F0012107F4DF1
:102343004F0012107FB74F0012107FED4F00121095
:102353007F78500012107FD0500012107FA75100D9
:1023630012107F60520012107FFB520012107F0385
:10237300560012107F1F570012107FC25A0012100E
:102383007FB65B0012107FB95B0012107FE85B0021
:1023930012107FEE5D0012107FC75E0012107F0ADD
:1023A3005F0012107F60600012107F9F60001210A8
:1023B3007F28610012107F5C610012107F21620090
:1023C30012107F39640012107FAA640012107FEA92
:1023D300640012107F78650012107F9A6600121055
:1023E3007F5C670012107F63690012107F7B6900B6
:1023F30012107F8F690012107FC7690012107FF5DA
:10240300690012107F746B0012107F996C00121018
:102413007FF66C0012107FA86D0012107FCF6D0045
:1024230012107F966E0012107F2E6F0012107F54D1
:10243300710012107F89710012107FEC710012106D
:102443007F1B730012107FC3730012107FF473009D
:1024530012107F0C740012107F9B740012107F4FB8
:10246300770012107F27790012107F437900121032
:102473007F5F790012107F2D7A0012107F207E007B
:1024830012107F22890112107F54890112107F4399
:102493008D0112107F8F8D0112107FD58D011210C7
:1024A3007F778E0112107FD38E0112107F188F0158
:1024B30012107F5F900112107F73910112107F62DF
:1024C300950112107FE6950112107FF39601121009
:1024D3007F4F970112107F3F990112107FB499012A
:1024E30012107FBE990112107FCB990112107FF653
:1024F300990112107FDD9A0112107F879B01121040
:102503007F059C0112107F259C0112107F4E9C01B8
:1025130012107F709C0112107FD09E0112107F96C3
:102523009F0112107FDB9F0112107F58A001121030
:102533007F09A10112107F3BA10112107F81A1012C
:1025430012107FBDA10112107F0DA20112107F6135
:10255300A20112107FB7A20112107F03A301121070
:102563007F70A30112107FEBA30112107FB6A501A8
:1025730012107FB6A60112107FDBA70112107F1A7B
:10258300AB0112107F2DAE0112107FEAAE011210C3
:102593007F2EAF0112107FDEB00112107FF2B00167
:1025A30012107FFCB00112107F06B10112107F12CE
:1025B300B10112107F2EB10112107FD9B101121097
:1025C3007F18B20112107F22B20112107F2CB201C8
:1025D30012107F9CB20112107FE7B20112107FFC30
:1025E300B30112107F58B40112107FD9B401121035
:1025F3007F98B50112107FA1B60112107FD5B701E4
:1026030012107FC3B80112107FDBB80112107F369E
:10261300B90112107F54B90112107F9CB901121035
:102623007FC3B90112107F5EBA0112107F24BB0170
:1026330012107FB6BB0112107F30BC0112107F4A0B
:10264300BD0112107FF7BD0112107F1FBF011210D1
:102653007F6FBF0112107FD3BF0112107F35C001FE
:1026630012107F63C00112107F87C00112107FBC5C
:10267300C00112107FEDC00112107F20C1011210A2
:102683007F40C10112107FA8C10112107F9CC201BB
:1026930012107FF7C20112107F20C30112107FA80E
:1026A300C30112107F2BC40112107F56C4011210F4
:1026B3007F3BC50112107F04F30112107F3CF3012D
:1026C30012107F5DF30112107F9FF30112107F013F
:1026D300F40112107F0BF40112107F1BF40112108E
:1026E3007F56F40112107F36F80112107F23FA018E
:1026F30012107F09FC0112107FA0FC0112107F420F
:10270300FD0112107F3DC70112107FBBC7011210DC
:102713007F17C80112107F62C80112107F7DC801A4
:1027230012107FA8C80112107FC5C80112107FD1F3
:10273300C80112107F68CA0112107F81CA011210EA
:102743007F06CB0112107F19CB0112107F38CB010A
:1027530012107FDCCB0112107F5DCD0112107F10B0
:10276300CF0112107FA6CF0112107FA9CF01121043
:102773007F19D00112107F37D00112107FCED00104
:1027830012107F16D10112107F19D10112107FDFB1
:10279300D10112107F4CD20112107F72D20112109C
:1027A3007FFDD20112107F1BD30112107F61D30171
:1027B30012107F15D40112107F5FD40112107F8E87
:1027C300D40112107FEBD40112107F20D501121017
:1027D3007F4CD50112107F5AD50112107FA7D50166
:1027E30012107F17D60112107F60D60112107FAC32
:1027F300D60112107FD8D60112107FE3D601121032
:102803007F01D70112107FECD70112107FF6D70199
:1028130012107F31D80112107F41D80112107F4A64
:10282300D80112107F9ED80112107FB2D801121066
:102833007FE1D90112107FF8D90112107F0DDA015F
:1028430012107F9BDA0112107FE0DA0112107F6C05
:10285300DB0112107F77DB0112107FB9DC0112104C
:102863007FD4DC0112107F20DD0112107F8FDD0188
:1028730012107FC8DD0112107FE2DD0112107F24E8
:10288300DE0112107FF4E00112107FA1E1011210AA
:102893007F0EE20112107F4EE40112107F66E40105
:1028A30012107F69E40112107F75E40112107F8911
:1028B300E40112107F91E40112107FC4E4011210AD
:1028C3007FC6E50112107F4DE60112107FBDE601C0
:1028D30012107F3FE70112107F00E80112107F1FE3
:1028E300E80112107FC0E80112107F1DE9011210E8
:1028F3007F20E90112107F4DE90112107F62E90187
:1029030012107FD6E90112107F25EB0112107F2BE5
:10291300EC0112107FB6EC0112107FD1ED01121001
:102923007F99EE0112107FCAEE0112107FEDEE01C6
:1029330012107FF6EE0112107F25EF0112107FB502
:10294300EF0112107F6BF00112107FE0F001121003
:102953007F87F10112107FFCF10112107F33F20126
:1029630012107F71F20112107FA7F20112107F275C
:10297300D70212107FAC900412107F5690041210ED
:102983007F42900412107FA18F0412107FA58E0442
:1029930012107FCF8D0412107FD88B0412107F2B5F
:1029A3008B0412107FBD8A0412107FC3B003121070
:1029B3007FB9B00312107F8DF00312107FE0D302B2
:1029C30012107F4EB00312107FA2AE0312107F7E4F
:1029D300D20212107F3DD20212107F60AE0312109A
:1029E3007F80AD0312107F6AAD0312107F2BAD03FE
:1029F30012107F86AC0312107F80A90312107F6E22
:102A0300A70312107F3BA70312107FD6A603121051
:102A13007F69A60312107F28A60312107F61A50306
:102A230012107FFCA40312107FA7A40312107F4A85
:102A3300A40312107F21A30312107FBEA20312105E
:102A43007F08A20312107F03A20312107FF7A103D2
:102A530012107FAA9E0312107F849E0312107F1E02
:102A6300D20212107FEBD10212107FD6D1021210C4
:102A73007FABD10212107F37940412107FFF9304AF
:102A830012107FA8930412107F299E0312107FD483
:102A93009D0312107F959D0312107F829D031210D8
:102AA3007F11920412107F779D0312107F539D03B1
:102AB30012107F629B0312107FE19A0312107F00B2
:102AC300800312107F9D9A0312107F5391041210FA
:102AD3007F719A0312107F5F8A0412107F218A0488
:102AE30012107FF4890412107FC0890412107F5FD3
:102AF300890412107F47890412107F23890412105E
:102B03007FEC850412107FB8830412107F9F810429
:102B130012107F2E810412107FDD800412107F9724
:102B2300800412107F00800412107F29C303000069
:102B33000080FBE4738F000100011887000100FF90
:102B43001735000400C81725000200CC1726000221
:102B530000CE1727000200D01728000100DA17293A
:102B6300000100DB17840004003F15860001005FAD
:102B7300172A000100DC172B000100DD172C0001D0
:102B830000E1172D0008004B152E000100E2172F5E
:102B9300000100E31730000100E41731000100E5F4
:102BA300173200010053153300010054153400019E
:102BB30000E61736000100551538000100E7173904
:102BC300000100E01783000200FD176300010061AC
:102BD3001564000100DE1765000100DF176D0001B9
:102BE30000621571000800431566000100FC1743DD
:102BF300000100ED1744000200EE1745000100F04C
:102C03001746000200F11747000800591548000154
:102C130000F3174B000100F417040001000018A192
:102C230000010004183700010003188800010002A6
:102C3300183C00010056153D000100E81749000249
:102C430000F5176700010063154D000200F7174EEA
:102C5300000100F9174F000200FA173E000100ECD3
:102C63001751000100571552000100EA17530001E4
:102C730000EB17540001005815000000000000008D
:102C830001363601010001020100010301000104C4
:102C930001060605020000070100340801000F09C0
:102CA3000401010D0100FF0E0800001702000019C6
:102CB3000100FF1A0100011B0100FE1C0100081D99
:102CC3000200001F01000120010001210200002376
:102CD30001000F240200002601000127010008283B
:102CE3000200FF2A0100072B0102402C0100002DE6
:102CF3000100012E0100012F0100FF30010B1D31E6
:102D03000800003A0100083B01000F3C0100013DAF
:102D13000100FF3E04000042040000460400004A94
:102D23000400004E04000052040000560400005A40
:102D3300040000000001002001208900000200209F
:102D43000121890000030020011D890000000020EB
:102D5300011C89000004004201BA870000050042FB
:102D63000137870000070030011E890000FDFF21A5
:102D7300011889000006004201E786000000404276
:102D830001E78601002000200567170100210020CC
:102D930005681701000002210569170004000021DE
:102DA3000530140204000029052814030400002937
:102DB300052A140304100029052C14030414002805
:102DC3000589170504000021052E14010371030171
:102DD300030103010301030103220302030103109F
:102DE3000300030003000300030003000300034286
:102DF3000300032403060300030003040312032553
:102E03000323032503230304030403000300030034
:102E13000344030003000323030003650321003578
:102E230003810300030503000300030003000325DC
:102E330003230301017101010101011101010131A9
:102E430001010101018001100161013B00140063D4
:102E53000173017201620143010001130106013D87
:102E63000135000401120100010001000100010409
:102E7300010401330133013C0144013201360000F6
:102E83000100016501000135008101000105018296
:102E93000183010001030071003001600011007023
:102EA3000031022003500480001000610000001470
:102EB3000063007300720062004300000013000609
:102EC30000000000000400120000000000000000E9
:102ED3000004000400370037003C024400000000F7
:102EE30000000000006500000035008100000005BF
:102EF3000000008300000003027102300160021130
:102F03000270020102020202028002100261023A0E
:102F13000041006302730272026202430200021361
:102F23000238000002000204021202000200020042
:102F330002000204020402370037003C024402008C
:102F4300023900000200026502000235028102001C
:102F5300020502820283020002360001000600001D
:102F6300000F00000000000000000000000000034C
:102F7300FFFF00000403FFFF0000FFFF0FF4010049
:102F830005C4040320000100000B00000000000042
:102F9300000003010F00000000000000000000001B
:102FA300000000000000000000000000000000001E
:102FB300000000000000007F1CA91C851CB91B8BAE
:102FC3001CAF1C8B1CBB1C911CB91B8B1CAF1C970F
:102FD3001CB91B000000009D1CB91B000000000071
:102FE300000000A31CB91B0000000000000000004B
:102FF30000000000000000000000000000000000CE
:1030030000000000000000000000000000000000BD
:103013000000000000E91E0100E91E02005F1E021D
:1030230080591E0300651E04006B1E0480711E057B
:1030330000771E0600831E3100951E33009B1E344D
:1030430000A11EFFFF00000604000018053514064A
:10305300040100300536140604100021238A1706E4
:1030630004110021238C170300030004000800103F
:10307300001F003E007B00F600EC01D703AF075DA5
:103083000FB91E713D000007ECFDFDFDECDCDCCC4F
:10309300BCACAC9C9C8C7C7C6C6C5C5C5C4C4C3C9D
:1030A3003C2C2C1C1C03EAF5E5D5D5C5B5A5959597
:1030B300858575756565555545453535252515153D
:1030C300050AFB2402C52405D12407CB240CAD2417
:1030D3000DB924FF000000160F00000B150B0200B2
:1030E30002220F3300000E0FD0D1D2D3D4D5D6D7BE
:1030F300D8D9DADBDCDDDEDF5A6967426565416C0E
:103103006C69616E63653039303016181920231AE3
:103113001C1E3000034D4C4651181A2505020001B0
:1031230019161816161823030030301718192130F2
:103133001B1D1F30003C40423A3F3F392F47300CA4
:103143000E020B040B0A0708000F0204020101011F
:10315300010902060000001005341400BE040AE849
:1031630003000003000100E8032400041E09011307
:103173000403101E030A0C040F0828020C0508158B
:1031830005FFC082C0831214AB90158E749DF0A30B
:103193007422F090159074A3F0A37422F09015920A
:1031A30074A9F0A37422F090159474AFF0A3742261
:1031B300F0025EC074F7120AFB901582E4F0E99006
:1031C3001581F07C597D157A837B15121B8F90171F
:1031D300F3E090158BF090158C7443F0A3741502F3
:1031E300414D74F0120AFBEAFEEBFF5480700302B8
:1031F30033569015811241E2700302334FEA241BC8
:10320300125A4D707CEA241F125A4D64137002A3A4
:10321300E0706E8A828B831233A490159C124FDF69
:10322300750A00750B00800D1240231270BF121A2D
:1032330093AA0EAB0FEA4B60488A828B83E0650C3E
:103243007004A3E0650D702C8A828B83A3A3A3A3D0
:10325300E0F50EA3E0F50FE50A450B8A828B83A305
:10326300A3A3A360C3124325850A82850B83A3A36B
:10327300A3A380B78A0A8B0B8A828B83124FDB80CE
:10328300B4E508242A125A4DFCE5082402F8E43573
:1032930009F9E8FAE9FB90159C12348BA3A3E064C7
:1032A30002703C8A828B83124FDF800B8882898372
:1032B300A3A3A3A3124325E849601F88828983E05F
:1032C3006A7003A3E06B70E488828983A3A3E06C34
:1032D30070DA9017F9125D7D806BECF91222D985B3
:1032E3000882850983E06401704FE50824181233CE
:1032F3008D1210D8126667120EF7E50824121233E6
:103303008D1210D8E5081241D61210D4E508240B0B
:1033130012666B120EFBE5082417124173E50824AD
:1033230002FCE43509FDE5082419FAE43509FB122A
:103333002B0D740A1210E7800CE064027007AA08D0
:10334300AB091223B7AA08AB091219FDEEFAEF6411
:1033530080802DEA5402600C9018547401F0EA64E2
:1033630002FA8023EA5408601A1222D3EA4B700B44
:1033730090159E1265427A0812339AEE6408FAEFAA
:10338300FB80047A007B00026CF1F582E43509F5D9
:1033930083E0F50A780A22FB901581E0F9121B5F9E
:1033A30022A3A3E0F50CA3E0F50D227B0090158189
:1033B300E0F9121B5374042274F4120AFB8A088B7B
:1033C300098A828B83A3A3A3124DD712417E38F5BA
:1033D30083E02409FA126C89700302347E8A828B9B
:1033E300837402124E4C85088285098312348BE85C
:1033F300F0A3E91269038A828B83A3A3A3A3A3A3E4
:10340300A3A3F0E5082403F8E4350912348012413C
:103413007E3AF583E08E828B83A3A3A3A3F0EE24ED
:1034230009FAE43FFB8E828F83A3A312602FF583F7
:103433008882E0A2E58E828F83A3A3A3A3A3500473
:1034430074018001E4F0E5082403F5828983124FB7
:10345300DFEA1255603BF583126C501210D0124113
:103463007D3B1261218E828F83A3A3127DFF1210F5
:10347300E7EEFAEFFB901581126CD68016F988827D
:10348300F583E0FAA3E0CA2212517CA3A3227402BB
:103493001210E77F04020E2C74F2120AFB8A088BC7
:1034A30009ECFAEDFB740E1213D8E0FC1214E18A56
:1034B3000C8B0DAE0CAF0DEA4F6030AC08AD0912AA
:1034C30014CFE96026AC08AD09EEFAEFFB1214D570
:1034D300E970148E828F83124312FAEFFB1214C920
:1034E300AA08AB091214F97900800279B40250CB0F
:1034F30074F0120AFB74F612117BEAFEEBFF8C08E0
:103503008D09750FB3852182852283E4F0750E0042
:103513008002050E903183E493F8E50EC3984003CF
:1035230002361AAA0E7B0012151D8A0A8B0BEA4B70
:1035330060E08A828B83A3A312362128F0F8C3EEBE
:1035430098EF940050CC7C157D007900AA08AB0954
:103553001219E5850A82850B83A3A3A3A31270FC2A
:10356300E0F8EEC3982925E0F8E433F9E50A28F5F5
:1035730082E50B39F583A3A3A3A3A3A3124188A3D5
:10358300125BA48A0C8B0DAC0CAD0DAA08AB09120F
:103593001B8F850A82850B83A3E06401700A126680
:1035A30067740112419A80447401121145850A829D
:1035B300850B83124FDD121505E9603D7409121363
:1035C300D8E0C0E0126667D0E0F074091213D8E0C7
:1035D300640370137401121145E508240BFAE435F2
:1035E30009FB121B8F801274011213D8124325E5B5
:1035F30008125B8A35091270BD850A82850B831216
:10360300667312419AA3A3E0C0E0E508241412668E
:103613006BD0E0F0750F00A90F740A026CEEA3A340
:10362300A3E0F8852182852283E02274F7120AFB46
:10363300E9FE8A828B83A3A3A3A3A3A3E054086018
:10364300338A828B83A3A3A3A3A3A3E054026021A1
:103653008A828B83A3A3A3A3A3A3A3A3A3E0640648
:10366300600F74E96E600A74CD6E600574F06E705D
:10367300031222BB0249CA74F0120AFB74EF12113F
:103683007B740F1213D812642674081213D8E9F04E
:10369300ECFEEDFF74051213D81247921249B6A33C
:1036A300E0F91214ED74061213D81264267406128C
:1036B30013D81255F170030239351241C2E0FA747E
:1036C300061213D8E0F91221FB123995F8A3E0F999
:1036D300E8497003023935EE2403F50AE43FF50B9C
:1036E300EE2406F508E43FF5097C00850882F5839E
:1036F300124FDF850A82850B83E0F91214F37403FA
:103703001213D8126426850A82850B83E0C0E085F4
:10371300218285228312398ED0E0125706F9852142
:103723008285228312402A125258123624FAA3E0C9
:10373300CA2407F582E43AF583E8F0A3E41264317E
:103743002406F582E438F583E41270C9124DCB12D6
:1037530010D0EE12417E3F12612174031213D8126E
:103763004DD72409127DF91210E774291213D812C8
:1037730070F61234851257193A1270BD742B121356
:10378300D8E0C0E08521828522831255B8D0E0F0CD
:1037930074021213D8E4F074251213D878081213A4
:1037A3006302388C74031213D81260E98882F5839C
:1037B30012397DA3A3A3125BAFFB12150B850E82F7
:1037C300850F83A3EAF0A3EBF074031213D8123925
:1037D3008EA312397D125DBEA2E6500F850E82853F
:1037E3000F83A3A3A3A3A3E0D2E1F074051213D81C
:1037F300E0706B850E82850F83A31243259015DC41
:10380300E0687003A3E0697055850E82850F83A37A
:10381300A3A312415D750C00780C1210D87808121E
:1038230010CC74291213D8E0F50C780C1210D8744C
:10383300271213D8120EFB9015E9120EFB790074B0
:10384300191213D8124FAF1223FF740A1210E7850F
:103853000E82850F83A3A3A3A3A3E04405F0740200
:103863001213D8E004FC8E828F83124FD98E828F7D
:1038730083A3A3A3E0F91214F374031213D81264FD
:103883002674021213D8E004F074031213D81255ED
:10389300F1606774021213D8E0FA74061213D81297
:1038A3004325C3EA98E499505174021213D8123C89
:1038B30067852182852283E028F8A3E039F9E8248B
:1038C3000FF50EE439F50F850E82F583E4F07403EA
:1038D3001213D8123988640160030237A7740512E2
:1038E30013D87401126CDCF074031213D8125EB097
:1038F300123C8AE8F0A3E90237CB85218285228333
:10390300124FDF122201852182852283120EFB745E
:10391300261213D8E0FD74251213D8E0FC740A12A2
:1039230013D8E0F9EEFAEFFB1222B574021210E796
:1039330080438E828F83A3A3A3E0C0E0740C121391
:10394300D8D0E0F0126B45E0C0E0740D1213D8D06C
:10395300E0F074061213D81255F17009740E1213A5
:10396300D874B98007740E1213D87410F074091246
:10397300113D1223F97411026CEEE0850E82850F5E
:1039830083A3A3A322E01256DEE022E01256DEA3B5
:10399300A322852182852283EAF0A3EB1255FA2222
:1039A30074F0120AFB74E112117B74041213D8E948
:1039B300F074031213D8ECF074021213D8EDF08AEA
:1039C3000E8B0F742F1213D81233A6AA0CFB1221DD
:1039D300EF74011213D8E9F0AA0CAB0D1221F574A0
:1039E300011213D8E07003023C6285218285228391
:1039F300E480158E828F83A3A3A3A3A3E0D2E3F075
:103A0300852182852283E004126C34F88521828526
:103A13002283E0C3984003023C5974011213D8E097
:103A23007003023C59852182852283123C67E50C91
:103A330028F8E50D39F9E8240FFEE439FF8E82F505
:103A430083A3A3A3A3A3E0A2E040B5750800750A6E
:103A530008750B0074021213D8E060037508207C0C
:103A6300087D007900740512113D1219E58E828FCD
:103A730083E0603E90162CE06401701AE508D2E3FF
:103A8300F508750B10123C771213D8E8F0A3E9126E
:103A93005AA274FF807643080C750A0C8E828F83BA
:103AA300A3123C821270BF74051213D874FFF0A3E3
:103AB300805A74041213D8E06009E508D2E6F508C9
:103AC300750A0A8E828F83A3E064FE7003A3E0F479
:103AD300703074121213D87404126691F8741D12A4
:103AE30013D8E8124E4C741212113D12211D7D00A1
:103AF3007C00790074151213D8AA82AB831229B7FC
:103B0300800B123C771213D8E8F0A3E9F074071284
:103B130013D8E508F01241B9C0E074091213D8D0E4
:103B2300E0F0740A1213D87401F0740512113D12F7
:103B330023BD74111213D8E06003023C37740D12D5
:103B430013D81257018E828F83A3A3A3A3F0740DFE
:103B53001213D8124E1AE50AF0A3E50BF074031200
:103B630013D8E0C0E0124DABD0E0125DBE601190FF
:103B7300162CE0C0E0740D1213D8124DF5D0E0F00E
:103B8300740D1213D8124325850C82850D83A3A3CC
:103B9300A3A3A3123C70241C1264201270D9123CFC
:103BA30072125D7039126B64C0E0124D92D0E01254
:103BB3006C29C0E0740D1213D81248D8D0E01269F2
:103BC3002AC0E0740D1213D81248CED0E0F0740D61
:103BD3001213D8123C82123C70242A126420850EE0
:103BE30082850F83A3A3A3A3A3A3A3A3E0126419B2
:103BF3001241A8C0E01248BAD0E0F0740D1213D8F5
:103C0300124FDF850E82850F83126C3F2428F582C5
:103C1300E43B1270BD1241B1126C501210D012610C
:103C23001AEA1263B23B127DFD1210E774051211FA
:103C33003D1223C38E828F83A3A3A3A3A3E0D2E069
:103C4300F074111213D8E060030239F674011213F1
:103C5300D8E014023A027900AA0CAB0D1222C17407
:103C63001F026CEEE075F007A4F8A9F022A3A312DB
:103C73004FE3E8228E828F83A3124329740522E047
:103C8300123C8AA3A3A322F8A3E0F9850E82850F31
:103C930083A32274F0120AFB74E812117BE98521D5
:103CA30082852283F08A0E8B0F8A828B83A3A3A340
:103CB300A3A3A3A3A3E0F91222198A088B09EA4B51
:103CC3007003023D73E50E1255741241D11241681F
:103CD300852182852283E06003023D767C04850E84
:103CE30082850F83A3A3A3A3A3A3A3A3E0F9122213
:103CF3001FEE4F607B8E828F83A3A3A3A312432562
:103D030074071213D812655712432574091213D876
:103D1300124E7CC0E074111213D8D0E0126908A3CC
:103D2300A3A3A3A3A3A3124325740F1213D8127042
:103D3300BF74121213D8E4126CE4C8241FF582E492
:103D430038F5831260E5C413135403FC70027C043A
:103D53008E828F83E0F978081210D4742059FD7491
:103D63004059F9740312113D1222B574021210E77F
:103D7300026CEC7C08850E82850F83A3A3A3A3A307
:103D8300A3A3A3E0F912221F8B0BEA4B7003023C9F
:103D9300F4EE4F60DB852182852283E0F50C780CFD
:103DA3001210D8850882850983A3A3A3A3A3A3A381
:103DB300E0F50C780C1210D88A828B83A3A3A3E0BE
:103DC300FB8A82850B8312791C8A82850B83E0FA36
:103DD3008E828F83A3A3E0F9122B1374021210E7D0
:103DE300023CF874F7120AFB74FA12117BE9FE78AD
:103DF3000179017F00800379000F12515BE0FCEF32
:103E0300C39C5026EF75F007A4FC85F008AD08EAC3
:103E13002CFCEB3DFD12474AE0A2E050DA540C6063
:103E2300D6E0A2E250D3780080CF8A828B83A3A30B
:103E3300A3A3A3A3E0703DE9A2E0400574016E7063
:103E4300338A828B83A3A3A3A3A3A3740112413A4E
:103E5300E0C0E074031213D8D0E01247A9E0C0E039
:103E630074041213D8D0E0F074051213D8E812606A
:103E7300841223F974060249C7C082C083790112F0
:103E830022C1025EC074F4120AFBEA4B901854601C
:103E930019E4F08A088B09F50AF50B78081210CC9F
:103EA3007A021233AE1210E7800A7401F07A027BB1
:103EB3000012339B02349674F0120AFB74F312114E
:103EC3007B74031213D8E4F0A3F090159C1241689D
:103ED30074011213D8E4F0A3124E5104F09015D6D6
:103EE300E0A2E35003023FAD12412E74091213D82E
:103EF30012139D74091213D8780812136390159E38
:103F0300780812114D74051213D87808121372121F
:103F1300403174051213D8780812131550077A012B
:103F23007B0002401E74051213D8780C12136390A1
:103F330017F8E0F509780C7908120A8CA80CA90D7A
:103F43009017F9E0C398E4995003E08001E88521D4
:103F530082852283F074091213D87808121363C080
:103F630008C009C00AC00B74051213D8780C1213C9
:103F730063124031780C7908120A8CE4F50AF50BC8
:103F8300D00FD00ED00DD00C780C790812120D90F2
:103F9300159E780C12137280111240231270BFEE1B
:103FA300FAEFFB121A93AE08AF09EE4F60658E82EB
:103FB3008F83123621C398502DEE2403F8E43FF982
:103FC300E0FA88828983E0C39AF0602374031213B2
:103FD300D812448B74011213D8EEF0A3EF1265725A
:103FE300FEA3E0FF80C48E828F83A3A3A3E4F08E9D
:103FF300828F83127DB674011213D81255F18E820B
:104003008F83A3A3A3A3609112654B1213D812400D
:104013002A808974031213D8124FDF740D026CEED9
:1040230012432990159C22126110A3A3A322901777
:10403300F7127DBEE4F50AF50B2274F0120AFB8A2F
:10404300088B09890A7800790090159C124168FB56
:10405300EE4B601E088E828F83A3A3A3A3124FA9E6
:10406300601008E87001098E828F83124164EA4F61
:1040730070E39017FA124FDFC3E89AE99B400302FB
:1040830041217A06124124A80CA90DEA49700302C2
:1040930041218A828B83E508F0A3E509124143E5B8
:1040A3000AF09017F912516312413AA3E4F0A3F016
:1040B30090159C124FA9600D8E828F83A3A3A3A397
:1040C3001270BF801790159C1270BF9015D6E0A296
:1040D300E3400912412E90159E12139D9015D6E0D0
:1040E300A2E3503A7A087B00901581E0F9121B6530
:1040F300EA4B4C4D70289017F7E0F508A3E08508CC
:104103000CF50DE4F50EF50F780C1210CC7A087B44
:1041130000901581E0F9121B5974041210E7026C28
:10412300F17B00121A8D8A0C8B0D22121B77EAF891
:10413300EBF9ECFAEDFB2212413E22124143A3229A
:10414300F08A828B83A3A322E508F00249CAF08E8A
:10415300828F83A3A3A3A3A3A322125A5BA3A3F0D7
:1041630022A3A3A3A3E0FEA3E0FF227F05020E2C5C
:10417300F582E43509F583E0F922EA12418222242B
:1041830010F582E422124190A3A3A3A32212432D8C
:104193008508828509832212419E22F0850A828541
:1041A3000B83A3A322E50E24111241CEE022E50ED8
:1041B300240E1241CE22E50E24101241CEE022122B
:1041C30041C622EE1241823FF58322F582E4350F88
:1041D300F58322240FF50AE43509F50B780A22E06A
:1041E300F9121A0F8A088B09EA4B2274F2120AFB9E
:1041F300890B8A088B098A828B83124FDF1222E58F
:10420300EA4B600479B8806A1222F1E9F8903175BB
:10421300E493F9E8C399400479B280567A151241C0
:1042230024AE0CAF0DEA4F7004791080458A828B5F
:1042330083E4F0A3124143E50BF0750A00780812FA
:1042430010D07C127D00EA2403126BFB1210E7905E
:1042530015A21255F170089015A2800C12432588FF
:1042630082898312427870F4EEF0A3EFF0122303F5
:1042730079000250CB124FE3EA4B8882898322C034
:1042830082C0839015A280048C828D8312791DECE9
:104293004D60288C828D83A3A3E069600574FF6958
:1042A30070E68C828D83A3A3A3E06A7003A3E06B03
:1042B30070D6EC2403FAE43DFB80047A007B000211
:1042C3005EC074F7120AFBE9FD74FE6D70047C0195
:1042D30080027C009015A280096D70027C018882A7
:1042E30089831255F1601F88828983A3A3A3E06A9F
:1042F3007003A3E06B70E7ECA2E088828983A3A339
:10430300E050D6F9800279FE0249CAEEF9800CA387
:10431300A3127DBEEE2274021210E77F02020E2C5E
:10432300F5831243292212432D22E0F8A3E0F92258
:1043330012432D8E828F83221210E77F03020E2CED
:10434300C082C08379009015A2800109E0FAA3E03E
:104353008A82F583E582458370F1025EC074F612AA
:104363000AFBE4F508F50978081210D4903175E4D6
:104373009375F013A4A9F012448012711D1210E773
:10438300E9FE74096E70031222FD02430E74F612E5
:104393000AFB74FE12117B852182852283E4F0A33C
:1043A300F0A821A9228808890978081210D4750871
:1043B3000275090078081210D4126D8E1210E702EC
:1043C300431974F5120AFB74EB12117B8521828564
:1043D3002283E4F0A3F09015A280748E828F83A3CE
:1043E300A3E0C0E074021213D8D0E0125AA2A9824B
:1043F300AA8389088A09750A0078081210D07C12EA
:104403007D0074061213D81270E21210E7740212C0
:1044130011358808890978081210D47508137509AD
:104423000078081210D474041213D812559475F03E
:1044330013A4F8AAF075F013E912447C126D9612D6
:1044430010E785218285228312448B8E828F83120B
:104453004168EE4F7085A821A92288088909780848
:104463001210D475080275090078081210D4126D61
:104473008E1210E7741502433BA42AF9E82402FCC8
:10448300E439FD7A427B0022E02401F0A3E034000A
:10449300F02274F4120AFB74EB12117B7E007F008E
:1044A300A821A9228808890978081210D47508025E
:1044B3008E0978081210D47C007D007A421271298B
:1044C3001210E7E9706C8E08805674021211358859
:1044D3000A890B780A1210D4750A13750B00780A2F
:1044E3001210D4E50875F013A4F8AAF075F013E5DB
:1044F3000912447C12712B1210E7E9701B7403122A
:1045030013D8AA82AB8374021213D8E0F91222DF04
:10451300E970050EEE70010F0508E5087002050944
:10452300852182852283124325C3E50898E50999ED
:104533004098EEFAEFFB741502349374F6120AFBFB
:104543008C828D83A3A3124797F0EA1263B83BF5DD
:1045530083E0C0E0124754D0E0F0EA241DF582E482
:104563003B124323124738124792F0A3F0EA241F69
:10457300F582E43BF583124168EC12472B3DF5834A
:10458300EEF0A3EFF01247313BF583124762A3A38A
:10459300A3A3A3A3EEF0A3EF126013FE8C828D837B
:1045A3001247A174035EFEC39403400302471EEE49
:1045B300600874026E60030246438C828D83E0546C
:1045C3000CFE740C6E7003024682E0A2E4400D8878
:1045D300828983E08C828D83A31247B774086E604F
:1045E300030246821247427401F08A828B83A3A39B
:1045F300A3A3A3125A6870148C828D83E0440C1217
:1046030047A9A3A3124762EEF0A3EFF08C828D8338
:10461300E0A2E4402B8882124770124785500109BB
:10462300F582124770A3A3A3A3A3A3F0A3EF12479A
:10463300B18C828D83A3A3A3F0E82403F85001096E
:1046430088828983E0C0E0EC2411F582E43DF583A0
:10465300D0E01247A18C828D83E0A2E75075888257
:104663008983E0FE8C828D831247B774FC5E700CE5
:104673008C828D83A3E054036403701E02471E12D1
:104683004742E4F0740C6E60030245ED88821247E2
:104693007612478550010902460F8C828D83A3E071
:1046A3005403603288828983E0C0E0EC12475C3DAA
:1046B300F583D0E01247B88C828D83E05403640203
:1046C300701488828983E0C0E012474AD0E0124721
:1046D300B88003A3E4F0EC1255603D1270BDEC24E6
:1046E30010FEE43DFFEA241DF582E43BF583E0F58B
:1046F300088E828F83E0C3982508F508F0EA241713
:10470300F8E43BF98882F583E0C39508C0E01247DB
:1047130038D0E0126013C39508500A124738E4F00A
:10472300124754E4F002431E2415F582E422EA24DE
:104733000DF582E422EC240DF582E43DF58322ECB1
:104743001257193DF58322EC2414F582E43DF583D9
:1047530022EC1241823DF583222413F582E422E008
:10476300FEA3E0FF8C828D83A3A3A3A3221247762B
:10477300A3A3228983E0F508A3E0FFE5088C828DDB
:104783008322A3A3A3A3F0A3EFF0E82402F8221249
:104793004797A322E4F08C828D83A3A3A32212471D
:1047A300BFA882A9832212413EA3A3A3A322124737
:1047B300BFA3E022A31247BF08A9832212601CA350
:1047C3002274F4120AFB74F312117B8A0A8B0BEC2A
:1047D300FEEDFF8C82F583E0540CF508E0A2E75070
:1047E30006E508D2E7F508E508D2E1F508125A68AC
:1047F3007006E508D2E4F508E0A2E55006E508D224
:10480300E5F5087C087D007900AA21AB221219E5A1
:1048130074021213D8E5081270C3C0E074031213B4
:10482300D8D0E0124E51E50AF0A3E50BF07405125F
:1048330013D812692F1213D8E0707774081213D8A3
:10484300124DD71260053812694AC0E0740812137A
:10485300D81248D8D0E012692AC0E074081213D8DD
:104863001248CED0E0F074081213D81248C4E012F4
:104873004DFF124E80126419EE2411125A34C0E017
:104883001248BAD0E0F0EE2414125A34C0E074088F
:104893001213D8124DD72435F582E438F583D0E0CE
:1048A300124E24C0E074081213D8124DDBD0E0126C
:1048B3006683740D023493E82432F582E439F58378
:1048C30022124333A3A3A3A3A3A322124DEB126B80
:1048D3002938F58322124DEB2426F582E438F5833B
:1048E3002274F7120AFB7E008A828B83A3A3A3A3FD
:1048F300A3A3A3A3A3E0640460030249A612571170
:10490300E060030249A61255733B1255EF70030290
:1049130049A688828983E0540360030249A6E8120A
:10492300571939F583E0FA8C828D83A3A3E0FBA3A7
:10493300E0CB2411F582E43BF583E06A706588825D
:104943008983A3A3A3A3A3A3A3A3A31249AAE06A4E
:104953007003A3E06B704C88828983A3A31249B6CA
:10496300E0FFA3E0CF2406125A346A7003A3E06B7E
:10497300703188828983A3A3E0F88C828D83A3A3FB
:10498300E0F9A3E0F5838982A3A3E06860138C8236
:104993008D83A3A3A3E0F5838982E0540C640470A0
:1049A300027E01EEF980201249AE22124FE78C827B
:1049B3008D8322A3A31249AEA3A322740C1213D88E
:1049C300E0F9740D1210E77F01020E2C74F6120A3F
:1049D300FB74FC12117BEAFEEBFFECFAEDFB8C821D
:1049E300F583A3E0540360169015981255F16059AE
:1049F3007900EEFCEFFD126210122B36804B8521FD
:104A030082852283EEF0A3EFF074021213D8124EC4
:104A130046AC21AD227A1B7B231225438A088B09DE
:104A2300A808A909EA4960218A828B83A3A3A3A3C7
:104A3300A3A3A3A3A37406F07A0088828B83124DE9
:104A4300D71263D9E0F91224A1740402431B74F250
:104A5300120AFB74F312117BEAFEEBFF8A82F583E1
:104A6300A3A3A3A3A3A3A3A3A3A3E0F50A9018540A
:104A7300E0700579BA024D8F750801750900750C50
:104A830000750D007C087D007900AA21AB22121964
:104A9300E574051213D87401124E5954046012744C
:104AA300021213D8E0D2E6124E5954087003750867
:104AB30003E05410600674404508F508E0540860AC
:104AC3002274021213D8E044C0124E595420600AD3
:104AD30074031213D8E0D2E0800874031213D8E0F1
:104AE300D2E1F0EE2415125A34124DBF7003740153
:104AF30069700674084508F5088E828F83A3A3A303
:104B0300A3A3A3A3A3E0701612259D85218285226A
:104B13008312642674021213D8E0D2E28030640F49
:104B2300701074021213D8124E6174044508F5080C
:104B3300807F8E828F83A3A3A3A3A3A3A3A3E064F5
:104B4300028E828F83700A1270F6E8F0A3E9F08078
:104B530060A3A3A3A3A3A3A3A3E06403700DAC2149
:104B6300AD22EEFAEFFB12235180468E828F83A390
:104B7300A3A3A3A3A3A3A3E06401703590162CE021
:104B8300601074021213D8124E61750910750AFF72
:104B9300801874021213D8E0440C124E5174FDF0C5
:104BA300A374FFF074044508F5088E828F831233D3
:104BB300A6EE2415125A34A2E0503F74021213D801
:104BC300E0540C701B8E828F83124FDF121F9DE9FE
:104BD300700579BB024D8F74021213D8E0D2E5F051
:104BE300EE2415125A34A2E0501074021213D8E0C6
:104BF300540C64047004E0D2E5F0EE2411125A342C
:104C0300C0E074041213D8D0E01269311213D8E053
:104C13006003024D8874081213D8124E1AE508F087
:104C2300A3E509F0124DB5E0C0E0124DABD0E0F0C2
:104C3300124D9CE0C0E074081213D8124DD71247EE
:104C43005C38F583D0E0124E806401701190162C0D
:104C5300E0C0E074081213D8124DF5D0E0F07408E8
:104C63001213D8124E15124DA6FAE8241CF582E44D
:104C730039F583EA124E4CEE2415FAE43FFB8A829F
:104C8300F58312791DE8125D7039F583124E46EEF5
:104C9300241C125A34C0E0124D92D0E0125EB612B8
:104CA3004DBF7003740169701374081213D812573F
:104CB30001FAEE241D125A34F91222258E828F83B3
:104CC300A3A3A3A3A3A3A3A3A3E0C0E07408121305
:104CD300D81248D8D0E0F074081213D81248CEE5A1
:104CE3000AF074081213D81255942428F582E43973
:104CF300F583E50CF0A3E50D124E2C124DFF125A6D
:104D0300AD126419EE124DA6C0E0E82433F582E437
:104D130039F583D0E0F0EE241B125A34C0E0740856
:104D23001213D8124DDBD0E0F0EE241A125A34C01D
:104D3300E074081213D8124DD72432F582E438F503
:104D430083D0E0124E24124DCB1210D0126B2F12CF
:104D5300791D740B1213D8124DD7242F127DF9121B
:104D630010E7EE2415125A34544060129015B8120D
:104D730055F1600AAA21AB22126210122B36AA2126
:104D8300AB221223C3740C1213D8E0F90250C6E805
:104D93002420F582E439F58322EE2419F582E43FD9
:104DA300F58322126B3EE022E82412F582E439F502
:104DB3008322EE2418F582E43FF583225480F8A37E
:104DC300E05401F974806822F508A3E0F509750A37
:104DD30000780822124DEB22124DEB2434F582E4C5
:104DE30038F58322A3A3A3A3124DEF22E0F8A3E097
:104DF300C822124DEB12472B38F58322FAA3E0FBAE
:104E0300E8242AF582E439F583EAF0A3EB22A3A38D
:104E1300A3A3124329EE2212559812557839F5832C
:104E230022F0EE2413125AB522F0EE240D125AB5D5
:104E330022E0FC8A828B83E02CFCA3E03400FD8A11
:104E4300828B83ECF0A3EDF022F0A3E4F022F08553
:104E5300218285228322F0EE2415125AB522E0D254
:104E6300E3F0124E69228E828F8312432D852182B5
:104E7300852283E8F0A3E9F022E8F0A3E912656C48
:104E8300E02274F7120AFB8A828B83A3E064017029
:104E9300047E6380027E648A828B83E060087905E6
:104EA300124EB924F3FE9015D4E06007F9124EB9FF
:104EB30024F2FE0249A612246BE9F8EEC398227489
:104EC300F6120AFB74FE12117B852182852283125E
:104ED3006426E9FEECFAEDFB9005C21255F160324F
:104EE300A821A9228808890978081210D47D0174A1
:104EF3000E1213D8E0FCEEF99005C21263FA122BDE
:104F03003674021210E7EA4B60047900800679B226
:104F1300800279B602431974F7120AFBE9FE901571
:104F23008E1255F1601F74091213D8E0F508780842
:104F33001210D8EEF990158E1263FA122B36740103
:104F43001210E7800279B60249CA74F7120AFB8984
:104F530008ECFEEDFF79B5E508245E6020146006D9
:104F630024F86034803D9005C4124FA96035127156
:104F73003A122B368E828F831264268024901590EA
:104F830012791DEC4D601CEEFCEFFD901590126341
:104F9300FA122B36E9F9800B90158C124FAF121BC6
:104FA3008F79000249CA124FE3EA4B22127921EEAC
:104FB300FAEFFB2274F7120AFBE9FE79B574AB6EC4
:104FC300700B90158C124FDF121B8F79000249CAA8
:104FD3008E828F83A3A3A3A3A3A3A3A3124FE3222E
:104FE300124FE722E0FAA3E0FB2274F1120AFBEA74
:104FF300FEEBFF8C0A8D0B7508019015DCE06E70DB
:1050030003A3E06F700C1250BAAA0AAB0B121B8FEA
:10501300805E1225A3EE6A7002EF6B7009AA0AABD9
:105023000B1225A9804AAC0AAD0BEEFAEFFB122056
:10503300F9E9F5089017FFE07036122A47E9703056
:10504300E508702C9015ACE06E7003A3E06F702040
:10505300EE4F601C750CA4750D15750E00780C12BF
:1050630010D07C087D00AA0AAB0B1270E61210E781
:10507300A908027A1974F2120AFBEAFEEBFF8C0804
:105083008D09750A011250BAEEFAEFFB121B89E97A
:10509300640170119015DC1243258508828509830C
:1050A3001270BF800EAC08AD09EEFAEFFB1220FFC1
:1050B300E9F50AA90A80111225978A0C8B0DAC0C0D
:1050C300AD0D22740D1210E77F06020E2C74F6123A
:1050D3000AFBEAFEEBFF7A0D7B00121A8DEA4B60A6
:1050E30062EE2424126DC3F0EE2425126DC3A312C5
:1050F3005188126DC9A3A3126B5C125163F0EE12B7
:105103005149125178E8F0A3E912519F12517012DC
:1051130070BFEE125152126C1FA3A3A3A3F0EE248F
:1051230033125A34C0E012515BD0E012694E12516F
:1051330070A3A3A3E8F0A3E9125197C0E01257119B
:10514300D0E0F002431E242AF582E43FF5832224B3
:105153002EF582E43FF58322EA125B8A3BF5832234
:1051630012516722E08A828B83A3A3A322126C7E4F
:10517300A3A3A3A32212517C2212432D8A828B83E1
:10518300A3A3A3A322F012518D22EE2426F582E4D9
:105193003FF58322F0EE2432125AB522F0EE242C8E
:1051A300125AB52274F4120AFB74FE12117BECFE40
:1051B300EDFFEC2416125A3464057010EC2406FC3F
:1051C300E43FFD12234BE97003025253AC21AD229D
:1051D300126E78121FA38521828522831255F160F6
:1051E3006B8E828F83E064017058E875F009A4F830
:1051F300AAF075F009E9A42AF9740328F8740339AD
:10520300F9E8FAE9FB8882F5837808121363EE1252
:1052130052F51213154027852182852283124E15DC
:10522300125A421252587808121363908868780809
:105233001212968A828B837808121372800A79A2DB
:105243008010EE240F1270B97900800679A18002D4
:1052530079C8023491124E76EE126B4A2274F2121E
:105263000AFB8A0C8B0DECFEEDFFEC125A42E4F0C4
:10527300A3F090882C7808121363EC1252F51211E4
:10528300916067EC240E125A3B703478B39015D3B7
:10529300E07028901605E064017020EC2411125A86
:1052A30034F91224538B09A909EE1255743F126481
:1052B30024EA4960047800800278A18808802EE0FF
:1052C30060046402700A12235DE9F5087007801D0B
:1052D300E064037010EEFCEFFDAA0CAB0D121FC7C8
:1052E300E9F50880087508A180037508A3A90802D9
:1052F30050CB126B4A78082274F0120AFB74F51231
:10530300117BEAFEEBFFEA240AFCE43F8C82F5837F
:10531300127DBA12557E74031211458A828B831251
:10532300621AE970030253E4740112114574031203
:10533300113D121FA374011213D81255F170030209
:1053430053E4E875F009A4F8AAF075F009E9A42A72
:10535300F974FF28FC740239FDE508240E12666B0C
:10536300E4F0041213D8124325E5081255743509E5
:105373001270BD8C828D831213C1E508241212664C
:105383006B12139D90886878081213638C828D8347
:1053930078081212A98C828D83780C12136390897A
:1053A300047808121363780C7908120A8CE508450F
:1053B30009450A450B702A74011213D812559475C6
:1053C300F009A4F8AAF075F009E9A42AF9740728EA
:1053D300F582740339F5837401F07A007B08125562
:1053E300A18E828F83A3A3A3A3A3A3A3A3A3A3E0B9
:1053F3002406FCA3E03400FD8E828F8312621A120E
:10540300693C603EEE240A125566124E1A74681205
:105413004E4CE812556039F5837402F09015BE12B4
:1054230013C18C828D831264131260053CF58312C1
:10543300139D90886878081213639015BE7808123C
:1054430012A91255DC705D90158C12558CA3A3A381
:10545300A3A3A3A3A3A3A312603B121B89E9701008
:10546300125FF990158C12600B700512693C603461
:105473008E828F83A3A3A3A3A3A3A3A3A3A3125542
:105483008C124FDF121FCDE960118E828F83A3A38D
:10549300A3A3A3A31255C8E4F0A3F08E828F8312B3
:1054A30055AEE4F01255DC600302555B8E828F83A8
:1054B300A3A3A3A3A3A3127DB69015D3E060030215
:1054C3005550901605E064016003025550750A3A81
:1054D300750B00780A1210D47402121135880A89E8
:1054E3000B780A1210D41273B51210E7E9705BE55A
:1054F30008240E12666B74011255F6C0E0E5082409
:105503001112666BD0E0F0E508240F12666B743A53
:10551300124E4C9015BA1213C1E508241212666B91
:1055230012139D90886878081213639015BA78084F
:105533001212A990886878081213639015BA780834
:10554300121191700812559D800312557E1255DC7D
:105553007006125EFC74A1F0740B026CEE240EF55F
:1055630082E422F8E43FF9E8FCE9FD8882F583222E
:10557300EA12557822240FF582E422E508125578C1
:105583003509F583E4F0A3F0221279218E828F830B
:10559300221255982212432DE8227A007B0290149E
:1055A30063E0F9121A39228A828B83A3A3A3A3A3EC
:1055B300A3A3A3A3A31255BC22124DEF240EF5827D
:1055C300E438F58322A3A3A3A31255D022124DEFEF
:1055D300240FF582E438F583228E828F83A3A3A35D
:1055E300A3A3A3124DE7240FF582E438F5831255E4
:1055F3009849221255FA22F0852182852283E022DE
:1056030074F6120AFBEAFEEBFF7A237B00121A8D73
:10561300EE240AF508E43FF5098508821264247C28
:10562300237D0079001219E58508828509831255C7
:10563300F170030256C4EEFAEFFB1223691255DC34
:1056430060748E828F831256F764018E828F83A3D8
:10565300A3A3A3A3A370071256ED740E80211255C2
:10566300F1701012693C700B8E828F83A3A3E0A2AA
:10567300E050071256E3740D80051256E3740512C9
:10568300694E5403640170071256CB7405800B9066
:1056930015D4E0C0E01256CBD0E0125706F583884C
:1056A30082125A61850882850983124DD71263B825
:1056B30038F583E9800E85088285098312649D800D
:1056C300031263E0F002431E8E828F83A3A3A3A37E
:1056D300A3A3A3A3A3A31256DD22E01263FFA32275
:1056E3008E828F83A3A3A3A3A3A3124DE71263BE4A
:1056F30038F58322A3A3A3A3A3A3A3A3A3A3125510
:10570300BCE02212570A22126E8DF8A3E022EA129D
:1057130057193BF58322240CF582E42274F1120A13
:10572300FB74E412117B8A0C8B0D8C088D097A2390
:105733007B00121A8D8A0A8B0BAE0AAF0BEA4F70ED
:1057430003025A1C1263C4E5082415125A4D6870EB
:1057530003A3E0698E828F83700474028002740154
:10576300F0E508240DF8E43509F98882F583E0FAB9
:10577300C3E49AFA95E0FB125A492AFAA3E03BFBE9
:105783008E828F83A3A3A3A31260228E828F83A30F
:10579300A3F0EE2420F582E43FF583E4F0EE242128
:1057A300F582E43FF583E4F0EEFAEFFB12241D8566
:1057B3000882850983125A6870098E828F83A374C5
:1057C3000580069015D4125A56F0EE2417F50AE414
:1057D3003FF50B8E828F83125A61E9850A82850B0E
:1057E30083F0EE2416F8E43FF9E508240EFAE435D5
:1057F30009FB88828983124E34E5082410FAE435C4
:1058030009FB850A82850B83E0FC88828983E0F8A3
:105813008A828B83E0C398C39CF8125AA2F0EEFCF1
:10582300EFFDAA0CAB0D122363E9F50B8E828F8378
:10583300E064027006125FF9125A26E50B60030258
:105843005A13750C00750D009017FFE06401600595
:10585300E06402703F125A386008EE2421125A3B6A
:1058630070328E828F83A3A3A31263E6125A6EEE65
:105873002416125A34125A97FAE439FB124126EAD3
:105883004B6011126C481210D0125A7CAA0C127081
:10589300E61210E7EEFAEFFB122429E9F50B901755
:1058A300FFE064016008E064026003025A06E970E5
:1058B30003025A06E50C450D7003025A1380038553
:1058C3000E0B125A38600BEE2421125A3B6003026E
:1058D3005A0C850B0E850C08850D09750A0078088E
:1058E3001210D0125A7C8E828F83A3A3A3A3127D9E
:1058F300FF1210E7EE2420125A34600D125A41743D
:1059030068124E4CEE24208015EE2421125A346086
:1059130015125A417403F0A37401F0EE2421F582A9
:10592300E43FF583E4F0EEFAEFFB122429E9F50BEB
:1059330070907C137D007900740912113D1219E5F2
:10594300741A1213D87401125AAD64687002A3E07A
:10595300704F8E828F831255C8E06405600302582E
:10596300C27C0879FF8E828F83A3A3A3A3E0242A9A
:1059730012603E121A6FE970030258C27C087D0060
:1059830079FF740112113D1219E574011211457A60
:10599300007B0079AB12234574191213D874FC8071
:1059A30015125A41E064037004A3E06401700874A3
:1059B300191213D874FFF0E4F508F50978081210EA
:1059C300D4740212114574131213D8AA82AB831232
:1059D30065231210E7852182852283E0602B7409F9
:1059E3001211358808890978081210D475081375BF
:1059F300090078081210D47C007D00126D961210F5
:105A0300E78006E50C450D6007AA0CAB0D121A934F
:105A1300EEFAEFFB121A938003750B10A90B741C9B
:105A2300027A16EE2406FAE43FFB121B8F22EE24C1
:105A33000C125AB522EE2420125AB5640122EE123A
:105A430055783FF58322E508240EF582E43509F500
:105A530083E022125A5BA322E08E828F8322A3E08B
:105A6300F912246B22E05403640122125A7222E0D9
:105A7300FAE82AF8E43400F9228E828F83A3A3A3E1
:105A83001263EA125A72EE2416125AB5125A97FC8E
:105A9300E439FD22FAE82AF8E439F9E82404221269
:105AA3005AA62212695DA3A3A322F0125AB222EED0
:105AB300240FF582E43FF583E022790102107C7420
:105AC300F4120AFBEAFEEBFF8A82F583A3A3A3A3E6
:105AD300A3A3A3A3124DD72424F582E438F583129C
:105AE3005A68702E8A828B831256F77025125B9048
:105AF300E06405701D125B90A3E0F8740168600513
:105B030074066870071255AA740280051255AA74A8
:105B130003F0EA240A1264911263FAE4F0EA240817
:105B2300F8E43F1234802431F582E43AF583E0C08F
